{
  "contractName": "HelloHedera",
  "abi": [
    {
      "inputs": [
        {
          "internalType": "string",
          "name": "message_",
          "type": "string"
        }
      ],
      "stateMutability": "nonpayable",
      "type": "constructor"
    },
    {
      "inputs": [
        {
          "internalType": "string",
          "name": "message_",
          "type": "string"
        }
      ],
      "name": "set_message",
      "outputs": [],
      "stateMutability": "nonpayable",
      "type": "function"
    },
    {
      "inputs": [],
      "name": "get_message",
      "outputs": [
        {
          "internalType": "string",
          "name": "",
          "type": "string"
        }
      ],
      "stateMutability": "view",
      "type": "function"
    },
    {
      "inputs": [],
      "name": "kill",
      "outputs": [],
      "stateMutability": "nonpayable",
      "type": "function"
    },
    {
      "inputs": [],
      "name": "get_user",
      "outputs": [
        {
          "components": [
            {
              "internalType": "string",
              "name": "name",
              "type": "string"
            },
            {
              "internalType": "uint256",
              "name": "id",
              "type": "uint256"
            }
          ],
          "internalType": "struct HelloHedera.User",
          "name": "",
          "type": "tuple"
        }
      ],
      "stateMutability": "view",
      "type": "function"
    }
  ],
  "bytecode": "0x60806040523480156200001157600080fd5b5060405162000b5b38038062000b5b83398181016040528101906200003791906200035d565b336000806101000a81548173ffffffffffffffffffffffffffffffffffffffff021916908373ffffffffffffffffffffffffffffffffffffffff16021790555080600190805190602001906200008f92919062000110565b5060405180604001604052806040518060400160405280600781526020017f506174686f726e000000000000000000000000000000000000000000000000008152508152602001600181525060026000820151816000019080519060200190620000fb92919062000110565b50602082015181600101559050505062000412565b8280546200011e90620003dd565b90600052602060002090601f0160209004810192826200014257600085556200018e565b82601f106200015d57805160ff19168380011785556200018e565b828001600101855582156200018e579182015b828111156200018d57825182559160200191906001019062000170565b5b5090506200019d9190620001a1565b5090565b5b80821115620001bc576000816000905550600101620001a2565b5090565b6000604051905090565b600080fd5b600080fd5b600080fd5b600080fd5b6000601f19601f8301169050919050565b7f4e487b7100000000000000000000000000000000000000000000000000000000600052604160045260246000fd5b6200022982620001de565b810181811067ffffffffffffffff821117156200024b576200024a620001ef565b5b80604052505050565b600062000260620001c0565b90506200026e82826200021e565b919050565b600067ffffffffffffffff821115620002915762000290620001ef565b5b6200029c82620001de565b9050602081019050919050565b60005b83811015620002c9578082015181840152602081019050620002ac565b83811115620002d9576000848401525b50505050565b6000620002f6620002f08462000273565b62000254565b905082815260208101848484011115620003155762000314620001d9565b5b62000322848285620002a9565b509392505050565b600082601f830112620003425762000341620001d4565b5b815162000354848260208601620002df565b91505092915050565b600060208284031215620003765762000375620001ca565b5b600082015167ffffffffffffffff811115620003975762000396620001cf565b5b620003a5848285016200032a565b91505092915050565b7f4e487b7100000000000000000000000000000000000000000000000000000000600052602260045260246000fd5b60006002820490506001821680620003f657607f821691505b6020821081036200040c576200040b620003ae565b5b50919050565b61073980620004226000396000f3fe608060405234801561001057600080fd5b506004361061004c5760003560e01c80632e9826021461005157806332af2edb1461006d57806341c0e1b51461008b578063fba1bc4c14610095575b600080fd5b61006b600480360381019061006691906104ee565b6100b3565b005b610075610121565b60405161008291906105bf565b60405180910390f35b6100936101b3565b005b61009d610221565b6040516100aa9190610681565b60405180910390f35b60008054906101000a900473ffffffffffffffffffffffffffffffffffffffff1673ffffffffffffffffffffffffffffffffffffffff163373ffffffffffffffffffffffffffffffffffffffff160361011e57806001908051906020019061011c9291906102d7565b505b50565b606060018054610130906106d2565b80601f016020809104026020016040519081016040528092919081815260200182805461015c906106d2565b80156101a95780601f1061017e576101008083540402835291602001916101a9565b820191906000526020600020905b81548152906001019060200180831161018c57829003601f168201915b5050505050905090565b60008054906101000a900473ffffffffffffffffffffffffffffffffffffffff1673ffffffffffffffffffffffffffffffffffffffff163373ffffffffffffffffffffffffffffffffffffffff160361021f573373ffffffffffffffffffffffffffffffffffffffff16ff5b565b61022961035d565b6002604051806040016040529081600082018054610246906106d2565b80601f0160208091040260200160405190810160405280929190818152602001828054610272906106d2565b80156102bf5780601f10610294576101008083540402835291602001916102bf565b820191906000526020600020905b8154815290600101906020018083116102a257829003601f168201915b50505050508152602001600182015481525050905090565b8280546102e3906106d2565b90600052602060002090601f016020900481019282610305576000855561034c565b82601f1061031e57805160ff191683800117855561034c565b8280016001018555821561034c579182015b8281111561034b578251825591602001919060010190610330565b5b5090506103599190610377565b5090565b604051806040016040528060608152602001600081525090565b5b80821115610390576000816000905550600101610378565b5090565b6000604051905090565b600080fd5b600080fd5b600080fd5b600080fd5b6000601f19601f8301169050919050565b7f4e487b7100000000000000000000000000000000000000000000000000000000600052604160045260246000fd5b6103fb826103b2565b810181811067ffffffffffffffff8211171561041a576104196103c3565b5b80604052505050565b600061042d610394565b905061043982826103f2565b919050565b600067ffffffffffffffff821115610459576104586103c3565b5b610462826103b2565b9050602081019050919050565b82818337600083830152505050565b600061049161048c8461043e565b610423565b9050828152602081018484840111156104ad576104ac6103ad565b5b6104b884828561046f565b509392505050565b600082601f8301126104d5576104d46103a8565b5b81356104e584826020860161047e565b91505092915050565b6000602082840312156105045761050361039e565b5b600082013567ffffffffffffffff811115610522576105216103a3565b5b61052e848285016104c0565b91505092915050565b600081519050919050565b600082825260208201905092915050565b60005b83811015610571578082015181840152602081019050610556565b83811115610580576000848401525b50505050565b600061059182610537565b61059b8185610542565b93506105ab818560208601610553565b6105b4816103b2565b840191505092915050565b600060208201905081810360008301526105d98184610586565b905092915050565b600082825260208201905092915050565b60006105fd82610537565b61060781856105e1565b9350610617818560208601610553565b610620816103b2565b840191505092915050565b6000819050919050565b61063e8161062b565b82525050565b6000604083016000830151848203600086015261066182826105f2565b91505060208301516106766020860182610635565b508091505092915050565b6000602082019050818103600083015261069b8184610644565b905092915050565b7f4e487b7100000000000000000000000000000000000000000000000000000000600052602260045260246000fd5b600060028204905060018216806106ea57607f821691505b6020821081036106fd576106fc6106a3565b5b5091905056fea26469706673582212209f5af1dbeff40f130278c32bf11af8d3c267b1e000eb149adee82f878b60091d64736f6c634300080e0033",
  "immutableReferences": {},
  "source": "pragma solidity >=0.5.0 <0.9.0;\n\ncontract HelloHedera {\n    // the contract's owner, set in the constructor\n    address owner;\n\n    // the message we're storing\n    string message;\n\n    struct User {\n        string name;\n        uint id;\n    }\n    User user;\n\n    constructor(string memory message_) {\n        // set the owner of the contract for `kill()`\n        owner = msg.sender;\n        message = message_;\n        user = User(\"Pathorn\", 1);\n    }\n\n    function set_message(string memory message_) public {\n        // only allow the owner to update the message\n        if (msg.sender != owner) return;\n        message = message_;\n    }\n\n    // return a string\n    function get_message() public view returns (string memory) {\n        return message;\n    }\n\n    // recover the funds of the contract\n    function kill() public {\n        if (msg.sender == owner) selfdestruct(payable(msg.sender));\n    }\n\n    function get_user() public view returns (User memory) {\n        return user;\n    }\n}\n",
  "sourcePath": "/Users/pathorn/Work/hedera/hedera-relay-sample/contracts/HelloHedera.sol",
  "compiler": {
    "name": "solc",
    "version": "0.8.14+commit.80d49f37.Emscripten.clang"
  },
  "schemaVersion": "3.4.13",
  "updatedAt": "2023-07-04T03:15:52.244Z",
  "devdoc": {
    "kind": "dev",
    "methods": {},
    "version": 1
  },
  "userdoc": {
    "kind": "user",
    "methods": {},
    "version": 1
  }
}