{
  "contractName": "MyContract",
  "abi": [
    {
      "inputs": [],
      "stateMutability": "nonpayable",
      "type": "constructor"
    },
    {
      "inputs": [],
      "name": "CryptoTransferFailed",
      "type": "error"
    },
    {
      "anonymous": false,
      "inputs": [
        {
          "indexed": false,
          "internalType": "uint256[]",
          "name": "first",
          "type": "uint256[]"
        },
        {
          "indexed": false,
          "internalType": "string[]",
          "name": "second",
          "type": "string[]"
        }
      ],
      "name": "Array",
      "type": "event"
    },
    {
      "anonymous": false,
      "inputs": [
        {
          "indexed": false,
          "internalType": "address",
          "name": "addr",
          "type": "address"
        },
        {
          "indexed": false,
          "internalType": "uint256",
          "name": "salt",
          "type": "uint256"
        }
      ],
      "name": "Deployed",
      "type": "event"
    },
    {
      "anonymous": false,
      "inputs": [
        {
          "indexed": false,
          "internalType": "uint256",
          "name": "value",
          "type": "uint256"
        },
        {
          "indexed": false,
          "internalType": "uint256",
          "name": "ethervalue",
          "type": "uint256"
        }
      ],
      "name": "MyValue",
      "type": "event"
    },
    {
      "anonymous": false,
      "inputs": [
        {
          "indexed": false,
          "internalType": "uint256",
          "name": "_value",
          "type": "uint256"
        }
      ],
      "name": "SetData",
      "type": "event"
    },
    {
      "inputs": [
        {
          "components": [
            {
              "components": [
                {
                  "internalType": "address",
                  "name": "accountID",
                  "type": "address"
                },
                {
                  "internalType": "int64",
                  "name": "amount",
                  "type": "int64"
                },
                {
                  "internalType": "bool",
                  "name": "isApproval",
                  "type": "bool"
                }
              ],
              "internalType": "struct IHederaTokenService.AccountAmount[]",
              "name": "transfers",
              "type": "tuple[]"
            }
          ],
          "internalType": "struct IHederaTokenService.TransferList",
          "name": "transferList",
          "type": "tuple"
        },
        {
          "components": [
            {
              "internalType": "address",
              "name": "token",
              "type": "address"
            },
            {
              "components": [
                {
                  "internalType": "address",
                  "name": "accountID",
                  "type": "address"
                },
                {
                  "internalType": "int64",
                  "name": "amount",
                  "type": "int64"
                },
                {
                  "internalType": "bool",
                  "name": "isApproval",
                  "type": "bool"
                }
              ],
              "internalType": "struct IHederaTokenService.AccountAmount[]",
              "name": "transfers",
              "type": "tuple[]"
            },
            {
              "components": [
                {
                  "internalType": "address",
                  "name": "senderAccountID",
                  "type": "address"
                },
                {
                  "internalType": "address",
                  "name": "receiverAccountID",
                  "type": "address"
                },
                {
                  "internalType": "int64",
                  "name": "serialNumber",
                  "type": "int64"
                },
                {
                  "internalType": "bool",
                  "name": "isApproval",
                  "type": "bool"
                }
              ],
              "internalType": "struct IHederaTokenService.NftTransfer[]",
              "name": "nftTransfers",
              "type": "tuple[]"
            }
          ],
          "internalType": "struct IHederaTokenService.TokenTransferList[]",
          "name": "tokenTransfers",
          "type": "tuple[]"
        }
      ],
      "name": "cryptoTransfer",
      "outputs": [
        {
          "internalType": "int256",
          "name": "responseCode",
          "type": "int256"
        }
      ],
      "stateMutability": "nonpayable",
      "type": "function"
    },
    {
      "inputs": [
        {
          "internalType": "address",
          "name": "token",
          "type": "address"
        },
        {
          "internalType": "address",
          "name": "from",
          "type": "address"
        },
        {
          "internalType": "address",
          "name": "to",
          "type": "address"
        },
        {
          "internalType": "uint256",
          "name": "amount",
          "type": "uint256"
        }
      ],
      "name": "delegateTransferFrom",
      "outputs": [
        {
          "internalType": "int64",
          "name": "responseCode",
          "type": "int64"
        }
      ],
      "stateMutability": "nonpayable",
      "type": "function"
    },
    {
      "inputs": [
        {
          "internalType": "address",
          "name": "token",
          "type": "address"
        },
        {
          "internalType": "address",
          "name": "from",
          "type": "address"
        },
        {
          "internalType": "address",
          "name": "to",
          "type": "address"
        },
        {
          "internalType": "uint256",
          "name": "serialNumber",
          "type": "uint256"
        }
      ],
      "name": "delegateTransferFromNFT",
      "outputs": [
        {
          "internalType": "int64",
          "name": "responseCode",
          "type": "int64"
        }
      ],
      "stateMutability": "nonpayable",
      "type": "function"
    },
    {
      "inputs": [
        {
          "internalType": "address",
          "name": "token",
          "type": "address"
        },
        {
          "internalType": "address",
          "name": "spender",
          "type": "address"
        },
        {
          "internalType": "uint256",
          "name": "amount",
          "type": "uint256"
        }
      ],
      "name": "safeApprove",
      "outputs": [],
      "stateMutability": "nonpayable",
      "type": "function"
    },
    {
      "inputs": [
        {
          "components": [
            {
              "internalType": "address",
              "name": "token",
              "type": "address"
            },
            {
              "components": [
                {
                  "internalType": "address",
                  "name": "accountID",
                  "type": "address"
                },
                {
                  "internalType": "int64",
                  "name": "amount",
                  "type": "int64"
                },
                {
                  "internalType": "bool",
                  "name": "isApproval",
                  "type": "bool"
                }
              ],
              "internalType": "struct IHederaTokenService.AccountAmount[]",
              "name": "transfers",
              "type": "tuple[]"
            },
            {
              "components": [
                {
                  "internalType": "address",
                  "name": "senderAccountID",
                  "type": "address"
                },
                {
                  "internalType": "address",
                  "name": "receiverAccountID",
                  "type": "address"
                },
                {
                  "internalType": "int64",
                  "name": "serialNumber",
                  "type": "int64"
                },
                {
                  "internalType": "bool",
                  "name": "isApproval",
                  "type": "bool"
                }
              ],
              "internalType": "struct IHederaTokenService.NftTransfer[]",
              "name": "nftTransfers",
              "type": "tuple[]"
            }
          ],
          "internalType": "struct IHederaTokenService.TokenTransferList[]",
          "name": "tokenTransfers",
          "type": "tuple[]"
        }
      ],
      "name": "safeCryptoTransfer",
      "outputs": [],
      "stateMutability": "nonpayable",
      "type": "function"
    },
    {
      "inputs": [
        {
          "internalType": "address",
          "name": "token",
          "type": "address"
        },
        {
          "internalType": "address",
          "name": "from",
          "type": "address"
        },
        {
          "internalType": "address",
          "name": "to",
          "type": "address"
        },
        {
          "internalType": "uint256",
          "name": "amount",
          "type": "uint256"
        }
      ],
      "name": "transferFrom",
      "outputs": [
        {
          "internalType": "int64",
          "name": "responseCode",
          "type": "int64"
        }
      ],
      "stateMutability": "nonpayable",
      "type": "function"
    },
    {
      "inputs": [
        {
          "internalType": "address",
          "name": "token",
          "type": "address"
        },
        {
          "internalType": "address",
          "name": "from",
          "type": "address"
        },
        {
          "internalType": "address",
          "name": "to",
          "type": "address"
        },
        {
          "internalType": "uint256",
          "name": "serialNumber",
          "type": "uint256"
        }
      ],
      "name": "transferFromNFT",
      "outputs": [
        {
          "internalType": "int64",
          "name": "responseCode",
          "type": "int64"
        }
      ],
      "stateMutability": "nonpayable",
      "type": "function"
    },
    {
      "inputs": [
        {
          "internalType": "address",
          "name": "token",
          "type": "address"
        },
        {
          "internalType": "address",
          "name": "sender",
          "type": "address"
        },
        {
          "internalType": "address",
          "name": "receiver",
          "type": "address"
        },
        {
          "internalType": "int64",
          "name": "serialNumber",
          "type": "int64"
        }
      ],
      "name": "transferNFT",
      "outputs": [
        {
          "internalType": "int256",
          "name": "responseCode",
          "type": "int256"
        }
      ],
      "stateMutability": "nonpayable",
      "type": "function"
    },
    {
      "inputs": [
        {
          "internalType": "address",
          "name": "token",
          "type": "address"
        },
        {
          "internalType": "address",
          "name": "sender",
          "type": "address"
        },
        {
          "internalType": "address",
          "name": "receiver",
          "type": "address"
        },
        {
          "internalType": "int64",
          "name": "amount",
          "type": "int64"
        }
      ],
      "name": "transferToken",
      "outputs": [
        {
          "internalType": "int256",
          "name": "responseCode",
          "type": "int256"
        }
      ],
      "stateMutability": "nonpayable",
      "type": "function"
    },
    {
      "inputs": [],
      "name": "callFactory",
      "outputs": [],
      "stateMutability": "payable",
      "type": "function"
    },
    {
      "inputs": [],
      "name": "showMessage",
      "outputs": [],
      "stateMutability": "payable",
      "type": "function"
    },
    {
      "inputs": [],
      "name": "emitEvent",
      "outputs": [],
      "stateMutability": "nonpayable",
      "type": "function"
    },
    {
      "inputs": [],
      "name": "myCreateToken",
      "outputs": [],
      "stateMutability": "payable",
      "type": "function"
    },
    {
      "inputs": [
        {
          "internalType": "address",
          "name": "token",
          "type": "address"
        }
      ],
      "name": "myAssociateToken",
      "outputs": [],
      "stateMutability": "nonpayable",
      "type": "function"
    },
    {
      "inputs": [
        {
          "internalType": "address",
          "name": "token",
          "type": "address"
        },
        {
          "internalType": "address",
          "name": "to",
          "type": "address"
        },
        {
          "internalType": "int64",
          "name": "amount",
          "type": "int64"
        }
      ],
      "name": "myTransferToken",
      "outputs": [],
      "stateMutability": "nonpayable",
      "type": "function"
    },
    {
      "inputs": [],
      "name": "getData",
      "outputs": [
        {
          "internalType": "uint256",
          "name": "",
          "type": "uint256"
        }
      ],
      "stateMutability": "view",
      "type": "function"
    },
    {
      "inputs": [
        {
          "internalType": "uint256",
          "name": "_data",
          "type": "uint256"
        }
      ],
      "name": "setData",
      "outputs": [],
      "stateMutability": "nonpayable",
      "type": "function"
    },
    {
      "inputs": [
        {
          "internalType": "uint8",
          "name": "v",
          "type": "uint8"
        },
        {
          "internalType": "bytes32",
          "name": "r",
          "type": "bytes32"
        },
        {
          "internalType": "bytes32",
          "name": "s",
          "type": "bytes32"
        },
        {
          "internalType": "bytes32",
          "name": "hash",
          "type": "bytes32"
        }
      ],
      "name": "recoverSignerFromSignature",
      "outputs": [
        {
          "internalType": "address",
          "name": "",
          "type": "address"
        }
      ],
      "stateMutability": "pure",
      "type": "function"
    },
    {
      "inputs": [
        {
          "internalType": "bytes",
          "name": "code",
          "type": "bytes"
        },
        {
          "internalType": "uint256",
          "name": "salt",
          "type": "uint256"
        }
      ],
      "name": "deploy",
      "outputs": [],
      "stateMutability": "nonpayable",
      "type": "function"
    }
  ],
  "bytecode": "0x6080604052620f4240600360006101000a81548167ffffffffffffffff021916908360070b67ffffffffffffffff1602179055506006600360086101000a81548163ffffffff021916908360030b63ffffffff1602179055503480156200006557600080fd5b50600180600080600681111562000081576200008062000245565b5b600681111562000096576200009562000245565b5b81526020019081526020016000208190555060026001600060016006811115620000c557620000c462000245565b5b6006811115620000da57620000d962000245565b5b8152602001908152602001600020819055506004600160006002600681111562000109576200010862000245565b5b60068111156200011e576200011d62000245565b5b815260200190815260200160002081905550600860016000600360068111156200014d576200014c62000245565b5b600681111562000162576200016162000245565b5b8152602001908152602001600020819055506010600160006004600681111562000191576200019062000245565b5b6006811115620001a657620001a562000245565b5b81526020019081526020016000208190555060206001600060056006811115620001d557620001d462000245565b5b6006811115620001ea57620001e962000245565b5b81526020019081526020016000208190555060406001600060068081111562000218576200021762000245565b5b60068111156200022d576200022c62000245565b5b81526020019081526020016000208190555062000274565b7f4e487b7100000000000000000000000000000000000000000000000000000000600052602160045260246000fd5b61356f80620002846000396000f3fe6080604052600436106101145760003560e01c80636e2e16d4116100a05780639c4ae2d0116100645780639c4ae2d014610381578063b0c54c0d146103aa578063eac6f3fe146103b4578063eb5625d9146103f1578063eca369171461041a57610114565b80636e2e16d4146102bd5780637b0cb839146102fa5780638125ceb214610311578063951015831461031b5780639b23d3d91461034457610114565b80633bc5de30116100e75780633bc5de30146101f95780635a74c098146102245780635ad522781461024d5780635b4b73a9146102575780635cfc90111461028057610114565b80630e71804f1461011957806311e1fc071461015657806315dacbea1461019357806330d2a9f2146101d0575b600080fd5b34801561012557600080fd5b50610140600480360381019061013b91906120fc565b610457565b60405161014d919061218d565b60405180910390f35b34801561016257600080fd5b5061017d600480360381019061017891906121de565b6105ac565b60405161018a9190612254565b60405180910390f35b34801561019f57600080fd5b506101ba60048036038101906101b591906121de565b6106c8565b6040516101c79190612254565b60405180910390f35b3480156101dc57600080fd5b506101f760048036038101906101f2919061226f565b6107e6565b005b34801561020557600080fd5b5061020e610911565b60405161021b91906122c7565b60405180910390f35b34801561023057600080fd5b5061024b600480360381019061024691906122e2565b61091b565b005b61025561094f565b005b34801561026357600080fd5b5061027e6004803603810190610279919061230f565b610a68565b005b34801561028c57600080fd5b506102a760048036038101906102a2919061233c565b610aa9565b6040516102b4919061218d565b60405180910390f35b3480156102c957600080fd5b506102e460048036038101906102df9190612412565b610bc7565b6040516102f19190612488565b60405180910390f35b34801561030657600080fd5b5061030f610c27565b005b610319610d94565b005b34801561032757600080fd5b50610342600480360381019061033d91906124a3565b610e83565b005b34801561035057600080fd5b5061036b600480360381019061036691906121de565b610edf565b6040516103789190612254565b60405180910390f35b34801561038d57600080fd5b506103a860048036038101906103a391906125ab565b610ffd565b005b6103b2611054565b005b3480156103c057600080fd5b506103db60048036038101906103d691906121de565b611202565b6040516103e89190612254565b60405180910390f35b3480156103fd57600080fd5b5061041860048036038101906104139190612607565b61131e565b005b34801561042657600080fd5b50610441600480360381019061043c919061233c565b61144f565b60405161044e919061218d565b60405180910390f35b600080600061016773ffffffffffffffffffffffffffffffffffffffff16630e71804f60e01b86866040516024016104909291906129bf565b604051602081830303815290604052907bffffffffffffffffffffffffffffffffffffffffffffffffffffffff19166020820180517bffffffffffffffffffffffffffffffffffffffffffffffffffffffff83818316178352505050506040516104fa9190612a70565b6000604051808303816000865af19150503d8060008114610537576040519150601f19603f3d011682016040523d82523d6000602084013e61053c565b606091505b50915091508161054d576015610562565b808060200190518101906105619190612ac0565b5b60030b9250601660030b83146105a4576040517feebe630000000000000000000000000000000000000000000000000000000000815260040160405180910390fd5b505092915050565b600080600061016773ffffffffffffffffffffffffffffffffffffffff16639b23d3d960e01b888888886040516024016105e99493929190612aed565b604051602081830303815290604052907bffffffffffffffffffffffffffffffffffffffffffffffffffffffff19166020820180517bffffffffffffffffffffffffffffffffffffffffffffffffffffffff83818316178352505050506040516106539190612a70565b600060405180830381855af49150503d806000811461068e576040519150601f19603f3d011682016040523d82523d6000602084013e610693565b606091505b5091509150816106a45760156106b9565b808060200190518101906106b89190612ac0565b5b60030b92505050949350505050565b600080600061016773ffffffffffffffffffffffffffffffffffffffff166315dacbea60e01b888888886040516024016107059493929190612aed565b604051602081830303815290604052907bffffffffffffffffffffffffffffffffffffffffffffffffffffffff19166020820180517bffffffffffffffffffffffffffffffffffffffffffffffffffffffff838183161783525050505060405161076f9190612a70565b6000604051808303816000865af19150503d80600081146107ac576040519150601f19603f3d011682016040523d82523d6000602084013e6107b1565b606091505b5091509150816107c25760156107d7565b808060200190518101906107d69190612ac0565b5b60030b92505050949350505050565b60008061016773ffffffffffffffffffffffffffffffffffffffff16630e71804f60e01b8460405160240161081b9190612b32565b604051602081830303815290604052907bffffffffffffffffffffffffffffffffffffffffffffffffffffffff19166020820180517bffffffffffffffffffffffffffffffffffffffffffffffffffffffff83818316178352505050506040516108859190612a70565b6000604051808303816000865af19150503d80600081146108c2576040519150601f19603f3d011682016040523d82523d6000602084013e6108c7565b606091505b50915091506108d68282611583565b61090c576040517feebe630000000000000000000000000000000000000000000000000000000000815260040160405180910390fd5b505050565b6000600254905090565b600061092733836115b7565b9050601660030b8114158015610941575060c260030b8114155b1561094b57600080fd5b5050565b6003600c9054906101000a900473ffffffffffffffffffffffffffffffffffffffff1673ffffffffffffffffffffffffffffffffffffffff16306040516024016109999190612488565b6040516020818303038152906040527f17e0df33000000000000000000000000000000000000000000000000000000007bffffffffffffffffffffffffffffffffffffffffffffffffffffffff19166020820180517bffffffffffffffffffffffffffffffffffffffffffffffffffffffff8381831617835250505050604051610a239190612a70565b600060405180830381855af49150503d8060008114610a5e576040519150601f19603f3d011682016040523d82523d6000602084013e610a63565b606091505b505050565b806002819055507f213621172e0917b3f1ae4c7384fe388011e2d061e056dd49b0f304e1d954b9fc81604051610a9e91906122c7565b60405180910390a150565b600080600061016773ffffffffffffffffffffffffffffffffffffffff16635cfc901160e01b88888888604051602401610ae69493929190612b54565b604051602081830303815290604052907bffffffffffffffffffffffffffffffffffffffffffffffffffffffff19166020820180517bffffffffffffffffffffffffffffffffffffffffffffffffffffffff8381831617835250505050604051610b509190612a70565b6000604051808303816000865af19150503d8060008114610b8d576040519150601f19603f3d011682016040523d82523d6000602084013e610b92565b606091505b509150915081610ba3576015610bb8565b80806020019051810190610bb79190612ac0565b5b60030b92505050949350505050565b60008060018387878760405160008152602001604052604051610bed9493929190612bb7565b6020604051602081039080840390855afa158015610c0f573d6000803e3d6000fd5b50505060206040510351905080915050949350505050565b600460019080600181540180825580915050600190039060005260206000200160009091909190915055600460029080600181540180825580915050600190039060005260206000200160009091909190915055600580600181540180825580915050600190039060005260206000200160006040518060400160405280600581526020017f48656c6c6f00000000000000000000000000000000000000000000000000000081525090919091509080519060200190610ce8929190611a22565b50600580600181540180825580915050600190039060005260206000200160006040518060400160405280600581526020017f776f726c6400000000000000000000000000000000000000000000000000000081525090919091509080519060200190610d56929190611a22565b507f52e446d8e64dfbe0f54fee8aeaef9f4adca8e34677499518e04451708eebab6660046005604051610d8a929190612ed6565b60405180910390a1565b600a341015610dd8576040517f08c379a0000000000000000000000000000000000000000000000000000000008152600401610dcf90612f6a565b60405180910390fd5b610e166040518060400160405280600481526020017f59657374000000000000000000000000000000000000000000000000000000008152506116cf565b7fbd7e0cb14410e1868094b3db7866b1c6b63afac89456ffdb35a0386898b40baa34670de0b6b3a7640000604051610e4f929190612fcf565b60405180910390a1600460019080600181540180825580915050600190039060005260206000200160009091909190915055565b6000610e918433858561144f565b9050601660030b8114610ed9576040517f08c379a0000000000000000000000000000000000000000000000000000000008152600401610ed090613044565b60405180910390fd5b50505050565b600080600061016773ffffffffffffffffffffffffffffffffffffffff16639b23d3d960e01b88888888604051602401610f1c9493929190612aed565b604051602081830303815290604052907bffffffffffffffffffffffffffffffffffffffffffffffffffffffff19166020820180517bffffffffffffffffffffffffffffffffffffffffffffffffffffffff8381831617835250505050604051610f869190612a70565b6000604051808303816000865af19150503d8060008114610fc3576040519150601f19603f3d011682016040523d82523d6000602084013e610fc8565b606091505b509150915081610fd9576015610fee565b80806020019051810190610fed9190612ac0565b5b60030b92505050949350505050565b6000818351602085016000f59050803b61101657600080fd5b7fb03c53b28e78a88e31607a27e1fa48234dce28d5d9d9ec7b295aeb02e674a1e18183604051611047929190613064565b60405180910390a1505050565b60008067ffffffffffffffff8111156110705761106f611b6c565b5b6040519080825280602002602001820160405280156110a957816020015b611096611aa8565b81526020019060019003908161108e5790505b50905060006040518060600160405280600060070b81526020013073ffffffffffffffffffffffffffffffffffffffff168152602001627a120060070b815250905060006040518061012001604052806040518060400160405280601281526020017f536d617274436f6e7472616374546f6b656e000000000000000000000000000081525081526020016040518060400160405280600381526020017f534354000000000000000000000000000000000000000000000000000000000081525081526020013073ffffffffffffffffffffffffffffffffffffffff1681526020016040518060200160405280600081525081526020016001151581526020016298968060070b815260200160001515815260200184815260200183815250905060006111e98262989680600360089054906101000a900460030b611768565b509050601660030b81146111fc57600080fd5b50505050565b600080600061016773ffffffffffffffffffffffffffffffffffffffff166315dacbea60e01b8888888860405160240161123f9493929190612aed565b604051602081830303815290604052907bffffffffffffffffffffffffffffffffffffffffffffffffffffffff19166020820180517bffffffffffffffffffffffffffffffffffffffffffffffffffffffff83818316178352505050506040516112a99190612a70565b600060405180830381855af49150503d80600081146112e4576040519150601f19603f3d011682016040523d82523d6000602084013e6112e9565b606091505b5091509150816112fa57601561130f565b8080602001905181019061130e9190612ac0565b5b60030b92505050949350505050565b60008061016773ffffffffffffffffffffffffffffffffffffffff1663e1f21c6760e01b8686866040516024016113579392919061308d565b604051602081830303815290604052907bffffffffffffffffffffffffffffffffffffffffffffffffffffffff19166020820180517bffffffffffffffffffffffffffffffffffffffffffffffffffffffff83818316178352505050506040516113c19190612a70565b6000604051808303816000865af19150503d80600081146113fe576040519150601f19603f3d011682016040523d82523d6000602084013e611403565b606091505b50915091506114128282611583565b611448576040517feebe630000000000000000000000000000000000000000000000000000000000815260040160405180910390fd5b5050505050565b600061146685308467ffffffffffffffff166118de565b5060008061016773ffffffffffffffffffffffffffffffffffffffff1663eca3691760e01b888888886040516024016114a29493929190612b54565b604051602081830303815290604052907bffffffffffffffffffffffffffffffffffffffffffffffffffffffff19166020820180517bffffffffffffffffffffffffffffffffffffffffffffffffffffffff838183161783525050505060405161150c9190612a70565b6000604051808303816000865af19150503d8060008114611549576040519150601f19603f3d011682016040523d82523d6000602084013e61154e565b606091505b50915091508161155f576015611574565b808060200190518101906115739190612ac0565b5b60030b92505050949350505050565b6000601660030b836115965760156115ab565b828060200190518101906115aa9190612ac0565b5b60030b14905092915050565b600080600061016773ffffffffffffffffffffffffffffffffffffffff166349146bde60e01b86866040516024016115f09291906130c4565b604051602081830303815290604052907bffffffffffffffffffffffffffffffffffffffffffffffffffffffff19166020820180517bffffffffffffffffffffffffffffffffffffffffffffffffffffffff838183161783525050505060405161165a9190612a70565b6000604051808303816000865af19150503d8060008114611697576040519150601f19603f3d011682016040523d82523d6000602084013e61169c565b606091505b5091509150816116ad5760156116c2565b808060200190518101906116c19190612ac0565b5b60030b9250505092915050565b611765816040516024016116e39190613131565b6040516020818303038152906040527f41304fac000000000000000000000000000000000000000000000000000000007bffffffffffffffffffffffffffffffffffffffffffffffffffffffff19166020820180517bffffffffffffffffffffffffffffffffffffffffffffffffffffffff83818316178352505050506119f9565b50565b6000808460008161010001516000015160070b148015611794575060008161010001516040015160070b145b156117b7576276a70060030b8161010001516040019060070b908160070b815250505b60008061016773ffffffffffffffffffffffffffffffffffffffff1634630fb65bf360e01b8a8a8a6040516024016117f19392919061347d565b604051602081830303815290604052907bffffffffffffffffffffffffffffffffffffffffffffffffffffffff19166020820180517bffffffffffffffffffffffffffffffffffffffffffffffffffffffff838183161783525050505060405161185b9190612a70565b60006040518083038185875af1925050503d8060008114611898576040519150601f19603f3d011682016040523d82523d6000602084013e61189d565b606091505b5091509150816118b057601560006118c5565b808060200190518101906118c491906134f9565b5b8160030b91508095508196505050505050935093915050565b600080600061016773ffffffffffffffffffffffffffffffffffffffff1663e1f21c6760e01b8787876040516024016119199392919061308d565b604051602081830303815290604052907bffffffffffffffffffffffffffffffffffffffffffffffffffffffff19166020820180517bffffffffffffffffffffffffffffffffffffffffffffffffffffffff83818316178352505050506040516119839190612a70565b6000604051808303816000865af19150503d80600081146119c0576040519150601f19603f3d011682016040523d82523d6000602084013e6119c5565b606091505b5091509150816119d65760156119eb565b808060200190518101906119ea9190612ac0565b5b60030b925050509392505050565b60008151905060006a636f6e736f6c652e6c6f679050602083016000808483855afa5050505050565b828054611a2e90612d6a565b90600052602060002090601f016020900481019282611a505760008555611a97565b82601f10611a6957805160ff1916838001178555611a97565b82800160010185558215611a97579182015b82811115611a96578251825591602001919060010190611a7b565b5b509050611aa49190611ac8565b5090565b604051806040016040528060008152602001611ac2611ae5565b81525090565b5b80821115611ae1576000816000905550600101611ac9565b5090565b6040518060a00160405280600015158152602001600073ffffffffffffffffffffffffffffffffffffffff1681526020016060815260200160608152602001600073ffffffffffffffffffffffffffffffffffffffff1681525090565b6000604051905090565b600080fd5b600080fd5b600080fd5b6000601f19601f8301169050919050565b7f4e487b7100000000000000000000000000000000000000000000000000000000600052604160045260246000fd5b611ba482611b5b565b810181811067ffffffffffffffff82111715611bc357611bc2611b6c565b5b80604052505050565b6000611bd6611b42565b9050611be28282611b9b565b919050565b600080fd5b600080fd5b600067ffffffffffffffff821115611c0c57611c0b611b6c565b5b602082029050602081019050919050565b600080fd5b600073ffffffffffffffffffffffffffffffffffffffff82169050919050565b6000611c4d82611c22565b9050919050565b611c5d81611c42565b8114611c6857600080fd5b50565b600081359050611c7a81611c54565b92915050565b60008160070b9050919050565b611c9681611c80565b8114611ca157600080fd5b50565b600081359050611cb381611c8d565b92915050565b60008115159050919050565b611cce81611cb9565b8114611cd957600080fd5b50565b600081359050611ceb81611cc5565b92915050565b600060608284031215611d0757611d06611b56565b5b611d116060611bcc565b90506000611d2184828501611c6b565b6000830152506020611d3584828501611ca4565b6020830152506040611d4984828501611cdc565b60408301525092915050565b6000611d68611d6384611bf1565b611bcc565b90508083825260208201905060608402830185811115611d8b57611d8a611c1d565b5b835b81811015611db45780611da08882611cf1565b845260208401935050606081019050611d8d565b5050509392505050565b600082601f830112611dd357611dd2611bec565b5b8135611de3848260208601611d55565b91505092915050565b600060208284031215611e0257611e01611b56565b5b611e0c6020611bcc565b9050600082013567ffffffffffffffff811115611e2c57611e2b611be7565b5b611e3884828501611dbe565b60008301525092915050565b600067ffffffffffffffff821115611e5f57611e5e611b6c565b5b602082029050602081019050919050565b600067ffffffffffffffff821115611e8b57611e8a611b6c565b5b602082029050602081019050919050565b600060808284031215611eb257611eb1611b56565b5b611ebc6080611bcc565b90506000611ecc84828501611c6b565b6000830152506020611ee084828501611c6b565b6020830152506040611ef484828501611ca4565b6040830152506060611f0884828501611cdc565b60608301525092915050565b6000611f27611f2284611e70565b611bcc565b90508083825260208201905060808402830185811115611f4a57611f49611c1d565b5b835b81811015611f735780611f5f8882611e9c565b845260208401935050608081019050611f4c565b5050509392505050565b600082601f830112611f9257611f91611bec565b5b8135611fa2848260208601611f14565b91505092915050565b600060608284031215611fc157611fc0611b56565b5b611fcb6060611bcc565b90506000611fdb84828501611c6b565b600083015250602082013567ffffffffffffffff811115611fff57611ffe611be7565b5b61200b84828501611dbe565b602083015250604082013567ffffffffffffffff81111561202f5761202e611be7565b5b61203b84828501611f7d565b60408301525092915050565b600061205a61205584611e44565b611bcc565b9050808382526020820190506020840283018581111561207d5761207c611c1d565b5b835b818110156120c457803567ffffffffffffffff8111156120a2576120a1611bec565b5b8086016120af8982611fab565b8552602085019450505060208101905061207f565b5050509392505050565b600082601f8301126120e3576120e2611bec565b5b81356120f3848260208601612047565b91505092915050565b6000806040838503121561211357612112611b4c565b5b600083013567ffffffffffffffff81111561213157612130611b51565b5b61213d85828601611dec565b925050602083013567ffffffffffffffff81111561215e5761215d611b51565b5b61216a858286016120ce565b9150509250929050565b6000819050919050565b61218781612174565b82525050565b60006020820190506121a2600083018461217e565b92915050565b6000819050919050565b6121bb816121a8565b81146121c657600080fd5b50565b6000813590506121d8816121b2565b92915050565b600080600080608085870312156121f8576121f7611b4c565b5b600061220687828801611c6b565b945050602061221787828801611c6b565b935050604061222887828801611c6b565b9250506060612239878288016121c9565b91505092959194509250565b61224e81611c80565b82525050565b60006020820190506122696000830184612245565b92915050565b60006020828403121561228557612284611b4c565b5b600082013567ffffffffffffffff8111156122a3576122a2611b51565b5b6122af848285016120ce565b91505092915050565b6122c1816121a8565b82525050565b60006020820190506122dc60008301846122b8565b92915050565b6000602082840312156122f8576122f7611b4c565b5b600061230684828501611c6b565b91505092915050565b60006020828403121561232557612324611b4c565b5b6000612333848285016121c9565b91505092915050565b6000806000806080858703121561235657612355611b4c565b5b600061236487828801611c6b565b945050602061237587828801611c6b565b935050604061238687828801611c6b565b925050606061239787828801611ca4565b91505092959194509250565b600060ff82169050919050565b6123b9816123a3565b81146123c457600080fd5b50565b6000813590506123d6816123b0565b92915050565b6000819050919050565b6123ef816123dc565b81146123fa57600080fd5b50565b60008135905061240c816123e6565b92915050565b6000806000806080858703121561242c5761242b611b4c565b5b600061243a878288016123c7565b945050602061244b878288016123fd565b935050604061245c878288016123fd565b925050606061246d878288016123fd565b91505092959194509250565b61248281611c42565b82525050565b600060208201905061249d6000830184612479565b92915050565b6000806000606084860312156124bc576124bb611b4c565b5b60006124ca86828701611c6b565b93505060206124db86828701611c6b565b92505060406124ec86828701611ca4565b9150509250925092565b600080fd5b600067ffffffffffffffff82111561251657612515611b6c565b5b61251f82611b5b565b9050602081019050919050565b82818337600083830152505050565b600061254e612549846124fb565b611bcc565b90508281526020810184848401111561256a576125696124f6565b5b61257584828561252c565b509392505050565b600082601f83011261259257612591611bec565b5b81356125a284826020860161253b565b91505092915050565b600080604083850312156125c2576125c1611b4c565b5b600083013567ffffffffffffffff8111156125e0576125df611b51565b5b6125ec8582860161257d565b92505060206125fd858286016121c9565b9150509250929050565b6000806000606084860312156126205761261f611b4c565b5b600061262e86828701611c6b565b935050602061263f86828701611c6b565b9250506040612650868287016121c9565b9150509250925092565b600081519050919050565b600082825260208201905092915050565b6000819050602082019050919050565b61268f81611c42565b82525050565b61269e81611c80565b82525050565b6126ad81611cb9565b82525050565b6060820160008201516126c96000850182612686565b5060208201516126dc6020850182612695565b5060408201516126ef60408501826126a4565b50505050565b600061270183836126b3565b60608301905092915050565b6000602082019050919050565b60006127258261265a565b61272f8185612665565b935061273a83612676565b8060005b8381101561276b57815161275288826126f5565b975061275d8361270d565b92505060018101905061273e565b5085935050505092915050565b60006020830160008301518482036000860152612795828261271a565b9150508091505092915050565b600081519050919050565b600082825260208201905092915050565b6000819050602082019050919050565b600081519050919050565b600082825260208201905092915050565b6000819050602082019050919050565b6080820160008201516128106000850182612686565b5060208201516128236020850182612686565b5060408201516128366040850182612695565b50606082015161284960608501826126a4565b50505050565b600061285b83836127fa565b60808301905092915050565b6000602082019050919050565b600061287f826127ce565b61288981856127d9565b9350612894836127ea565b8060005b838110156128c55781516128ac888261284f565b97506128b783612867565b925050600181019050612898565b5085935050505092915050565b60006060830160008301516128ea6000860182612686565b5060208301518482036020860152612902828261271a565b9150506040830151848203604086015261291c8282612874565b9150508091505092915050565b600061293583836128d2565b905092915050565b6000602082019050919050565b6000612955826127a2565b61295f81856127ad565b935083602082028501612971856127be565b8060005b858110156129ad578484038952815161298e8582612929565b94506129998361293d565b925060208a01995050600181019050612975565b50829750879550505050505092915050565b600060408201905081810360008301526129d98185612778565b905081810360208301526129ed818461294a565b90509392505050565b600081519050919050565b600081905092915050565b60005b83811015612a2a578082015181840152602081019050612a0f565b83811115612a39576000848401525b50505050565b6000612a4a826129f6565b612a548185612a01565b9350612a64818560208601612a0c565b80840191505092915050565b6000612a7c8284612a3f565b915081905092915050565b60008160030b9050919050565b612a9d81612a87565b8114612aa857600080fd5b50565b600081519050612aba81612a94565b92915050565b600060208284031215612ad657612ad5611b4c565b5b6000612ae484828501612aab565b91505092915050565b6000608082019050612b026000830187612479565b612b0f6020830186612479565b612b1c6040830185612479565b612b2960608301846122b8565b95945050505050565b60006020820190508181036000830152612b4c818461294a565b905092915050565b6000608082019050612b696000830187612479565b612b766020830186612479565b612b836040830185612479565b612b906060830184612245565b95945050505050565b612ba2816123dc565b82525050565b612bb1816123a3565b82525050565b6000608082019050612bcc6000830187612b99565b612bd96020830186612ba8565b612be66040830185612b99565b612bf36060830184612b99565b95945050505050565b600081549050919050565b600082825260208201905092915050565b60008190508160005260206000209050919050565b612c36816121a8565b82525050565b6000612c488383612c2d565b60208301905092915050565b60008160001c9050919050565b6000819050919050565b6000612c7e612c7983612c54565b612c61565b9050919050565b6000612c918254612c6b565b9050919050565b6000600182019050919050565b6000612cb082612bfc565b612cba8185612c07565b9350612cc583612c18565b8060005b83811015612cfd57612cda82612c85565b612ce48882612c3c565b9750612cef83612c98565b925050600181019050612cc9565b5085935050505092915050565b600081549050919050565b600082825260208201905092915050565b60008190508160005260206000209050919050565b7f4e487b7100000000000000000000000000000000000000000000000000000000600052602260045260246000fd5b60006002820490506001821680612d8257607f821691505b602082108103612d9557612d94612d3b565b5b50919050565b600082825260208201905092915050565b60008190508160005260206000209050919050565b60008154612dce81612d6a565b612dd88186612d9b565b94506001821660008114612df35760018114612e0557612e38565b60ff1983168652602086019350612e38565b612e0e85612dac565b60005b83811015612e3057815481890152600182019150602081019050612e11565b808801955050505b50505092915050565b6000612e4d8383612dc1565b905092915050565b6000600182019050919050565b6000612e6d82612d0a565b612e778185612d15565b935083602082028501612e8985612d26565b8060005b85811015612ec457848403895281612ea58582612e41565b9450612eb083612e55565b925060208a01995050600181019050612e8d565b50829750879550505050505092915050565b60006040820190508181036000830152612ef08185612ca5565b90508181036020830152612f048184612e62565b90509392505050565b600082825260208201905092915050565b7f496e73756666696369656e74207061796d656e74000000000000000000000000600082015250565b6000612f54601483612f0d565b9150612f5f82612f1e565b602082019050919050565b60006020820190508181036000830152612f8381612f47565b9050919050565b6000819050919050565b6000819050919050565b6000612fb9612fb4612faf84612f8a565b612f94565b6121a8565b9050919050565b612fc981612f9e565b82525050565b6000604082019050612fe460008301856122b8565b612ff16020830184612fc0565b9392505050565b7f4661696c656420746f207472616e7366657220746f6b656e0000000000000000600082015250565b600061302e601883612f0d565b915061303982612ff8565b602082019050919050565b6000602082019050818103600083015261305d81613021565b9050919050565b60006040820190506130796000830185612479565b61308660208301846122b8565b9392505050565b60006060820190506130a26000830186612479565b6130af6020830185612479565b6130bc60408301846122b8565b949350505050565b60006040820190506130d96000830185612479565b6130e66020830184612479565b9392505050565b600081519050919050565b6000613103826130ed565b61310d8185612f0d565b935061311d818560208601612a0c565b61312681611b5b565b840191505092915050565b6000602082019050818103600083015261314b81846130f8565b905092915050565b600061315e826130ed565b6131688185612d9b565b9350613178818560208601612a0c565b61318181611b5b565b840191505092915050565b600081519050919050565b600082825260208201905092915050565b6000819050602082019050919050565b600082825260208201905092915050565b60006131d4826129f6565b6131de81856131b8565b93506131ee818560208601612a0c565b6131f781611b5b565b840191505092915050565b600060a08301600083015161321a60008601826126a4565b50602083015161322d6020860182612686565b506040830151848203604086015261324582826131c9565b9150506060830151848203606086015261325f82826131c9565b91505060808301516132746080860182612686565b508091505092915050565b60006040830160008301516132976000860182612c2d565b50602083015184820360208601526132af8282613202565b9150508091505092915050565b60006132c8838361327f565b905092915050565b6000602082019050919050565b60006132e88261318c565b6132f28185613197565b935083602082028501613304856131a8565b8060005b85811015613340578484038952815161332185826132bc565b945061332c836132d0565b925060208a01995050600181019050613308565b50829750879550505050505092915050565b6060820160008201516133686000850182612695565b50602082015161337b6020850182612686565b50604082015161338e6040850182612695565b50505050565b60006101608301600083015184820360008601526133b28282613153565b915050602083015184820360208601526133cc8282613153565b91505060408301516133e16040860182612686565b50606083015184820360608601526133f98282613153565b915050608083015161340e60808601826126a4565b5060a083015161342160a0860182612695565b5060c083015161343460c08601826126a4565b5060e083015184820360e086015261344c82826132dd565b915050610100830151613463610100860182613352565b508091505092915050565b61347781612a87565b82525050565b600060608201905081810360008301526134978186613394565b90506134a66020830185612245565b6134b3604083018461346e565b949350505050565b60006134c682611c22565b9050919050565b6134d6816134bb565b81146134e157600080fd5b50565b6000815190506134f3816134cd565b92915050565b600080604083850312156135105761350f611b4c565b5b600061351e85828601612aab565b925050602061352f858286016134e4565b915050925092905056fea2646970667358221220168f8955c185677614cc11cbaa6e2f21b3cc83c98f98094fc23c60a72ccaeb6f64736f6c634300080e0033",
  "immutableReferences": {},
  "source": "// SPDX-License-Identifier: MIT\npragma solidity >=0.5 <0.9.0;\nimport \"./hts-precompile/IHederaTokenService.sol\";\nimport \"./hts-precompile/HederaResponseCodes.sol\";\nimport \"./hts-precompile/KeyHelper.sol\";\nimport \"./hts-precompile/ExpiryHelper.sol\";\nimport \"./Factory.sol\";\nimport \"hardhat/console.sol\";\n\ncontract MyContract is HederaTokenService, KeyHelper {\n    uint256 data;\n    event SetData(uint256 _value);\n    int64 MULTIPLIER = 1000000;\n    int32 NUM_DECIMALS = 6;\n    Factory factory;\n    uint[] first;\n    string[] second;\n    event Array(uint[] first, string[] second);\n    event MyValue(uint value, uint ethervalue);\n\n    constructor() {\n        //factory = new Factory();\n    }\n\n    function callFactory() external payable {\n        address(factory).delegatecall(\n            abi.encodeWithSignature(\"myCreateToken(address)\", address(this))\n        );\n        //factory.myCreateToken{value: msg.value}(address(this));\n    }\n\n    function showMessage() public payable {\n        require(msg.value >= 10, \"Insufficient payment\");\n        console.log(\"Yest\");\n        emit MyValue(msg.value, 1 ether);\n        first.push(1);\n    }\n\n    function emitEvent() external {\n        first.push(1);\n        first.push(2);\n        second.push(\"Hello\");\n        second.push(\"world\");\n        emit Array(first, second);\n    }\n\n    function myCreateToken() public payable {\n        IHederaTokenService.TokenKey[]\n            memory keys = new IHederaTokenService.TokenKey[](0);\n\n        IHederaTokenService.Expiry memory expiry = IHederaTokenService.Expiry(\n            0,\n            address(this),\n            8000000\n        );\n\n        IHederaTokenService.HederaToken memory token = IHederaTokenService\n            .HederaToken(\n                \"SmartContractToken\",\n                \"SCT\",\n                address(this),\n                \"\",\n                true,\n                10000000,\n                false,\n                keys,\n                expiry\n            );\n\n        (int responseCode, ) = HederaTokenService.createFungibleToken(\n            token,\n            10000000,\n            NUM_DECIMALS\n        );\n\n        require(responseCode == HederaResponseCodes.SUCCESS);\n    }\n\n    function myAssociateToken(address token) external {\n        int responseCode = HederaTokenService.associateToken(msg.sender, token);\n        if (\n            responseCode != HederaResponseCodes.SUCCESS &&\n            responseCode !=\n            HederaResponseCodes.TOKEN_ALREADY_ASSOCIATED_TO_ACCOUNT\n        ) {\n            revert();\n        }\n    }\n\n    function myTransferToken(address token, address to, int64 amount) external {\n        int responseCode = HederaTokenService.transferToken(\n            token,\n            msg.sender,\n            to,\n            int64(amount)\n        );\n        require(\n            responseCode == HederaResponseCodes.SUCCESS,\n            \"Failed to transfer token\"\n        );\n    }\n\n    function getData() external view returns (uint256) {\n        return data;\n    }\n\n    function setData(uint256 _data) external {\n        data = _data;\n        emit SetData(_data);\n    }\n\n    function setDataPrivate(uint256 _data) private {\n        data = _data + 10;\n    }\n\n    function recoverSignerFromSignature(\n        uint8 v,\n        bytes32 r,\n        bytes32 s,\n        bytes32 hash\n    ) public pure returns (address) {\n        address signer = ecrecover(hash, v, r, s);\n        return signer;\n    }\n\n    event Deployed(address addr, uint256 salt);\n\n    function deploy(bytes memory code, uint256 salt) public {\n        address addr;\n        assembly {\n            addr := create2(0, add(code, 0x20), mload(code), salt)\n            if iszero(extcodesize(addr)) {\n                revert(0, 0)\n            }\n        }\n\n        emit Deployed(addr, salt);\n    }\n}\n",
  "sourcePath": "/Users/pathorn/Work/hedera/hedera-relay-sample/contracts/MyContract.sol",
  "compiler": {
    "name": "solc",
    "version": "0.8.14+commit.80d49f37.Emscripten.clang"
  },
  "schemaVersion": "3.4.13",
  "updatedAt": "2023-04-21T08:34:06.286Z",
  "devdoc": {
    "kind": "dev",
    "methods": {
      "cryptoTransfer(((address,int64,bool)[]),(address,(address,int64,bool)[],(address,address,int64,bool)[])[])": {
        "custom:version": "0.3.0 the signature of the previous version was cryptoTransfer(TokenTransferList[] memory tokenTransfers)",
        "params": {
          "tokenTransfers": "the list of transfers to do",
          "transferList": "the list of hbar transfers to do"
        },
        "returns": {
          "responseCode": "The response code for the status of the request. SUCCESS is 22."
        }
      },
      "delegateTransferFrom(address,address,address,uint256)": {
        "params": {
          "amount": "The amount of tokens to transfer from `from` to `to`",
          "from": "The account address of the owner of the token, on the behalf of which to transfer `amount` tokens",
          "to": "The account address of the receiver of the `amount` tokens",
          "token": "The address of the fungible Hedera token to transfer"
        },
        "returns": {
          "responseCode": "The response code for the status of the request. SUCCESS is 22."
        }
      },
      "delegateTransferFromNFT(address,address,address,uint256)": {
        "params": {
          "from": "The account address of the owner of `serialNumber` of `token`",
          "serialNumber": "The NFT serial number to transfer",
          "to": "The account address of the receiver of `serialNumber`",
          "token": "The address of the non-fungible Hedera token to transfer"
        },
        "returns": {
          "responseCode": "The response code for the status of the request. SUCCESS is 22."
        }
      },
      "transferFrom(address,address,address,uint256)": {
        "params": {
          "amount": "The amount of tokens to transfer from `from` to `to`",
          "from": "The account address of the owner of the token, on the behalf of which to transfer `amount` tokens",
          "to": "The account address of the receiver of the `amount` tokens",
          "token": "The address of the fungible Hedera token to transfer"
        },
        "returns": {
          "responseCode": "The response code for the status of the request. SUCCESS is 22."
        }
      },
      "transferFromNFT(address,address,address,uint256)": {
        "params": {
          "from": "The account address of the owner of `serialNumber` of `token`",
          "serialNumber": "The NFT serial number to transfer",
          "to": "The account address of the receiver of `serialNumber`",
          "token": "The address of the non-fungible Hedera token to transfer"
        },
        "returns": {
          "responseCode": "The response code for the status of the request. SUCCESS is 22."
        }
      },
      "transferNFT(address,address,address,int64)": {
        "params": {
          "receiver": "The receiver of the transaction",
          "sender": "The sender for the transaction",
          "serialNumber": "The serial number of the NFT to transfer.",
          "token": "The token to transfer to/from"
        }
      },
      "transferToken(address,address,address,int64)": {
        "params": {
          "amount": "Non-negative value to send. a negative value will result in a failure.",
          "receiver": "The receiver of the transaction",
          "sender": "The sender for the transaction",
          "token": "The token to transfer to/from"
        }
      }
    },
    "version": 1
  },
  "userdoc": {
    "kind": "user",
    "methods": {
      "cryptoTransfer(((address,int64,bool)[]),(address,(address,int64,bool)[],(address,address,int64,bool)[])[])": {
        "notice": "Performs transfers among combinations of tokens and hbars"
      },
      "delegateTransferFrom(address,address,address,uint256)": {
        "notice": "Only applicable to fungible tokens"
      },
      "delegateTransferFromNFT(address,address,address,uint256)": {
        "notice": "Transfers `serialNumber` of `token` from `from` to `to` using the allowance mechanism. Only applicable to NFT tokens"
      },
      "transferFrom(address,address,address,uint256)": {
        "notice": "Only applicable to fungible tokens"
      },
      "transferFromNFT(address,address,address,uint256)": {
        "notice": "Transfers `serialNumber` of `token` from `from` to `to` using the allowance mechanism. Only applicable to NFT tokens"
      },
      "transferNFT(address,address,address,int64)": {
        "notice": "Transfers tokens where the calling account/contract is implicitly the first entry in the token transfer list, where the amount is the value needed to zero balance the transfers. Regular signing rules apply for sending (positive amount) or receiving (negative amount)"
      },
      "transferToken(address,address,address,int64)": {
        "notice": "Transfers tokens where the calling account/contract is implicitly the first entry in the token transfer list, where the amount is the value needed to zero balance the transfers. Regular signing rules apply for sending (positive amount) or receiving (negative amount)"
      }
    },
    "version": 1
  }
}