{
  "contractName": "Verify",
  "abi": [
    {
      "inputs": [],
      "stateMutability": "nonpayable",
      "type": "constructor"
    },
    {
      "inputs": [],
      "name": "estimator",
      "outputs": [
        {
          "internalType": "contract BNPairingPrecompileCostEstimator",
          "name": "",
          "type": "address"
        }
      ],
      "stateMutability": "view",
      "type": "function"
    },
    {
      "inputs": [
        {
          "internalType": "bytes32",
          "name": "domain",
          "type": "bytes32"
        },
        {
          "internalType": "uint256[4]",
          "name": "publicKey",
          "type": "uint256[4]"
        },
        {
          "internalType": "uint256[2]",
          "name": "signature",
          "type": "uint256[2]"
        },
        {
          "internalType": "bytes32",
          "name": "message",
          "type": "bytes32"
        }
      ],
      "name": "verify",
      "outputs": [
        {
          "internalType": "bool",
          "name": "",
          "type": "bool"
        }
      ],
      "stateMutability": "view",
      "type": "function"
    },
    {
      "inputs": [],
      "name": "verifyDefaultMessage",
      "outputs": [
        {
          "internalType": "bool",
          "name": "",
          "type": "bool"
        }
      ],
      "stateMutability": "view",
      "type": "function"
    }
  ],
  "bytecode": "0x60806040523480156200001157600080fd5b50604051620000209062000105565b604051809103906000f0801580156200003d573d6000803e3d6000fd5b506000806101000a81548173ffffffffffffffffffffffffffffffffffffffff021916908373ffffffffffffffffffffffffffffffffffffffff16021790555060008054906101000a900473ffffffffffffffffffffffffffffffffffffffff1673ffffffffffffffffffffffffffffffffffffffff1663c04062266040518163ffffffff1660e01b8152600401600060405180830381600087803b158015620000e657600080fd5b505af1158015620000fb573d6000803e3d6000fd5b5050505062000113565b610b7b8062002d0b83390190565b612be880620001236000396000f3fe608060405234801561001057600080fd5b50600436106100415760003560e01c80638eb1f7af1461004657806390fb5717146100765780639af3b5b814610094575b600080fd5b610060600480360381019061005b919061255a565b6100b2565b60405161006d91906125dd565b60405180910390f35b61007e6101a1565b60405161008b91906125dd565b60405180910390f35b61009c61036c565b6040516100a99190612677565b60405180910390f35b600080600061010b85876100e58a886040516020016100d191906126a1565b604051602081830303815290604052610390565b60008054906101000a900473ffffffffffffffffffffffffffffffffffffffff1661053c565b809350819250505081610153576040517f08c379a000000000000000000000000000000000000000000000000000000000815260040161014a9061273f565b60405180910390fd5b80610193576040517f08c379a000000000000000000000000000000000000000000000000000000000815260040161018a906127ab565b60405180910390fd5b600192505050949350505050565b6000806101ac612281565b6101b46122a3565b60007f321580d53f250a51ed527f5f7856bdd2ecbbf19f722ee6acc1804f63462375f360001b9050602060001b93507f0426baca09607b981c659e9f4eef6091fd38bada2a10038594bd5bd49f12eb6483600060048110610218576102176127cb565b5b6020020181815250507f0427dd9575c7d5e43b321cf85a4eac65efad7d7090c05ba07190a990e2e53b6f83600160048110610256576102556127cb565b5b6020020181815250507f16805aa9a9092410e3f0df030339fe8bbbd50cc6e37ae6ee42a90586a76fb7a983600260048110610294576102936127cb565b5b6020020181815250507f05c9a4d2bdc57b404e873f798b562ed74cd9338e4c3ec466239aa5b4728f91b1836003600481106102d2576102d16127cb565b5b6020020181815250507f0860fd8f8a3f16c83113d541c0e753b06821de68c3207bff7a4708d93396e221826000600281106103105761030f6127cb565b5b6020020181815250507f2de999d59d22ce6773d6b4b1107b7ffa41d03e8ec8338739dda8bd4be1df50598260016002811061034e5761034d6127cb565b5b602002018181525050610363848484846100b2565b94505050505090565b60008054906101000a900473ffffffffffffffffffffffffffffffffffffffff1681565b6103986122a3565b60006103a484846107b1565b905060006103c9826000600281106103bf576103be6127cb565b5b6020020151610942565b905060006103ee836001600281106103e4576103e36127cb565b5b6020020151610942565b90506103f8612281565b8260006002811061040c5761040b6127cb565b5b602002015181600060048110610425576104246127cb565b5b60200201818152505082600160028110610442576104416127cb565b5b60200201518160016004811061045b5761045a6127cb565b5b60200201818152505081600060028110610478576104776127cb565b5b602002015181600260048110610491576104906127cb565b5b602002018181525050816001600281106104ae576104ad6127cb565b5b6020020151816003600481106104c7576104c66127cb565b5b602002018181525050600060408460808460066107d05a03fa905080600081036104ed57fe5b508061052e576040517f08c379a000000000000000000000000000000000000000000000000000000000815260040161052590612846565b60405180910390fd5b839550505050505092915050565b600080600060405180610180016040528088600060028110610561576105606127cb565b5b602002015181526020018860016002811061057f5761057e6127cb565b5b602002015181526020017f198e9393920d483a7260bfb731fb5d25f1aa493335a9e71297e485b7aef312c281526020017f1800deef121f1e76426a00665e5c4479674322d4f75edadd46debd5cd992f6ed81526020017f275dc4a288d1afb3cbb1ac09187524c7db36395df7be3b99e673b13a075a65ec81526020017f1d9befcd05a5323e6da4d435f3b617cdb3af83285c2df711ef39c01571827f9d815260200186600060028110610635576106346127cb565b5b6020020151815260200186600160028110610653576106526127cb565b5b6020020151815260200187600160048110610671576106706127cb565b5b602002015181526020018760006004811061068f5761068e6127cb565b5b60200201518152602001876003600481106106ad576106ac6127cb565b5b60200201518152602001876002600481106106cb576106ca6127cb565b5b602002015181525090506106dd6122c5565b60008573ffffffffffffffffffffffffffffffffffffffff16634e79f8ca60026040518263ffffffff1660e01b815260040161071991906128a1565b602060405180830381865afa158015610736573d6000803e3d6000fd5b505050506040513d601f19601f8201168201806040525081019061075a91906128d1565b9050600060208361018086600886fa9050806107805760008095509550505050506107a8565b600083600060018110610796576107956127cb565b5b60200201511415600195509550505050505b94509492505050565b6107b96122a3565b60006107c5848461108c565b90506000806000806018850177ffffffffffffffffffffffffffffffffffffffffffffffff815116935060308601905077ffffffffffffffffffffffffffffffffffffffffffffffff81511694507f30644e72e131a029b85045b68181585d97816a916871ca8d3c208c16d87cfd47857f30644e72e131a029b85045b68181585d97816a916871ca8d3c208c16d87cfd477801000000000000000000000000000000000000000000000000870908925060488601905077ffffffffffffffffffffffffffffffffffffffffffffffff815116935060608601905077ffffffffffffffffffffffffffffffffffffffffffffffff81511694507f30644e72e131a029b85045b68181585d97816a916871ca8d3c208c16d87cfd47857f30644e72e131a029b85045b68181585d97816a916871ca8d3c208c16d87cfd4778010000000000000000000000000000000000000000000000008709089150506040518060400160405280838152602001828152509550505050505092915050565b61094a6122a3565b7f30644e72e131a029b85045b68181585d97816a916871ca8d3c208c16d87cfd4782106109ac576040517f08c379a00000000000000000000000000000000000000000000000000000000081526004016109a390612970565b60405180910390fd5b600082905060006109bc82611384565b91505060007f30644e72e131a029b85045b68181585d97816a916871ca8d3c208c16d87cfd47806109f0576109ef612990565b5b83840990507f30644e72e131a029b85045b68181585d97816a916871ca8d3c208c16d87cfd4780610a2457610a23612990565b5b60048208905060007f30644e72e131a029b85045b68181585d97816a916871ca8d3c208c16d87cfd4780610a5b57610a5a612990565b5b77b3c4d79d41a91759a9e4c7e359b6b89eaec68e62effffffd8509905060007f30644e72e131a029b85045b68181585d97816a916871ca8d3c208c16d87cfd4780610aa957610aa8612990565b5b8383099050610ab7816113cd565b90507f30644e72e131a029b85045b68181585d97816a916871ca8d3c208c16d87cfd4780610ae857610ae7612990565b5b82830991507f30644e72e131a029b85045b68181585d97816a916871ca8d3c208c16d87cfd4780610b1c57610b1b612990565b5b81830991507f30644e72e131a029b85045b68181585d97816a916871ca8d3c208c16d87cfd4780610b5057610b4f612990565b5b82860991507f30644e72e131a029b85045b68181585d97816a916871ca8d3c208c16d87cfd4780610b8457610b83612990565b5b827f30644e72e131a029b85045b68181585d97816a916871ca8d3c208c16d87cfd47610bb091906129ee565b7759e26bcea0d48bacd4f263f1acdb5c4f5763473177fffffe0894507f30644e72e131a029b85045b68181585d97816a916871ca8d3c208c16d87cfd4780610bfb57610bfa612990565b5b85860991507f30644e72e131a029b85045b68181585d97816a916871ca8d3c208c16d87cfd4780610c2f57610c2e612990565b5b85830991507f30644e72e131a029b85045b68181585d97816a916871ca8d3c208c16d87cfd4780610c6357610c62612990565b5b6003830891506000610c7483611384565b80925081945050508015610cd85784610cb657827f30644e72e131a029b85045b68181585d97816a916871ca8d3c208c16d87cfd47610cb391906129ee565b92505b6040518060400160405280878152602001848152509650505050505050611087565b7f30644e72e131a029b85045b68181585d97816a916871ca8d3c208c16d87cfd4780610d0757610d06612990565b5b600187087f30644e72e131a029b85045b68181585d97816a916871ca8d3c208c16d87cfd47610d3691906129ee565b95507f30644e72e131a029b85045b68181585d97816a916871ca8d3c208c16d87cfd4780610d6757610d66612990565b5b86870992507f30644e72e131a029b85045b68181585d97816a916871ca8d3c208c16d87cfd4780610d9b57610d9a612990565b5b86840992507f30644e72e131a029b85045b68181585d97816a916871ca8d3c208c16d87cfd4780610dcf57610dce612990565b5b600384089250610dde83611384565b80925081945050508015610e425784610e2057827f30644e72e131a029b85045b68181585d97816a916871ca8d3c208c16d87cfd47610e1d91906129ee565b92505b6040518060400160405280878152602001848152509650505050505050611087565b7f30644e72e131a029b85045b68181585d97816a916871ca8d3c208c16d87cfd4780610e7157610e70612990565b5b84850995507f30644e72e131a029b85045b68181585d97816a916871ca8d3c208c16d87cfd4780610ea557610ea4612990565b5b86870995507f30644e72e131a029b85045b68181585d97816a916871ca8d3c208c16d87cfd4780610ed957610ed8612990565b5b82870995507f30644e72e131a029b85045b68181585d97816a916871ca8d3c208c16d87cfd4780610f0d57610f0c612990565b5b82870995507f30644e72e131a029b85045b68181585d97816a916871ca8d3c208c16d87cfd4780610f4157610f40612990565b5b6001870895507f30644e72e131a029b85045b68181585d97816a916871ca8d3c208c16d87cfd4780610f7657610f75612990565b5b86870992507f30644e72e131a029b85045b68181585d97816a916871ca8d3c208c16d87cfd4780610faa57610fa9612990565b5b86840992507f30644e72e131a029b85045b68181585d97816a916871ca8d3c208c16d87cfd4780610fde57610fdd612990565b5b600384089250610fed83611384565b809250819450505080611035576040517f08c379a000000000000000000000000000000000000000000000000000000000815260040161102c90612a94565b60405180910390fd5b8461106957827f30644e72e131a029b85045b68181585d97816a916871ca8d3c208c16d87cfd4761106691906129ee565b92505b60405180604001604052808781526020018481525096505050505050505b919050565b60606000825190506000600460408360206110a79190612ab4565b6110b19190612ab4565b6110bb9190612ab4565b67ffffffffffffffff8111156110d4576110d3612342565b5b6040519080825280601f01601f1916602001820160405280156111065781602001600182028036833780820191505090505b5090506000606067ffffffffffffffff81111561112657611125612342565b5b6040519080825280601f01601f1916602001820160405280156111585781602001600182028036833780820191505090505b5090506060820160005b84811015611180576020810187015181830152602081019050611162565b508381019050600081536001810190506060815360018101905060008153600181019050868152602081019050602081535060006002836040516111c49190612b59565b602060405180830381855afa1580156111e1573d6000803e3d6000fd5b5050506040513d601f19601f820116820180604052508101906112049190612b85565b9050600060429450848452816020850152600160408501538760418501526020604160200185015360028460405161123c9190612b59565b602060405180830381855afa158015611259573d6000803e3d6000fd5b5050506040513d601f19601f8201168201806040525081019061127c9190612b85565b90508060208401528082188060208601526002604086015388604186015260206041602001860153506002846040516112b59190612b59565b602060405180830381855afa1580156112d2573d6000803e3d6000fd5b5050506040513d601f19601f820116820180604052508101906112f59190612b85565b905080604084015280821880602086015260036040860153886041860152602060416020018601535060028460405161132e9190612b59565b602060405180830381855afa15801561134b573d6000803e3d6000fd5b5050506040513d601f19601f8201168201806040525081019061136e9190612b85565b9050806060840152829550505050505092915050565b600080611390836113df565b9150827f30644e72e131a029b85045b68181585d97816a916871ca8d3c208c16d87cfd47806113c2576113c1612990565b5b838409149050915091565b60006113d882611b27565b9050919050565b60007f30644e72e131a029b85045b68181585d97816a916871ca8d3c208c16d87cfd478083840991508083830981838209828283098385830984848309858484098684850997508684840987858409945087898a09985087898a09985087898a09985087898a09985087898a09985087878a09985087898a09985087898a09985087898a099850878a8a09985087898a09985087898a09985087898a09985087898a099850878a8a09985087898a09985087898a09985087898a09985087898a09985087898a09985087848a09985087898a09985087898a09985087898a09985087898a09985087898a09985087848a09985087898a09985087898a09985087898a099850878a8a09985087898a09985087898a09985087898a09985087898a09985087848a09985087898a09985087898a09985087898a09985087898a09985087898a099850878a8a09985087898a09985087898a09985087898a09985087898a09985087878a09985087898a09985087898a09985087898a09985087898a09985087898a09985087898a09985087898a09985087818a09985087898a09985087898a09985087898a09985087898a09985087898a09985087898a09985087898a09985087898a09985087898a09985087898a09985087868a09985087898a09985087898a09985087898a09985087898a09985087878a09985087898a09985087898a09985087898a09985087898a09985087848a09985087898a09985087898a09985087898a09985087898a09985087898a09985087898a09985087898a09985087868a09985087898a09985087898a09985087898a09985087898a09985087898a09985087898a099850878a8a09985087898a09985087898a09985087898a09985087898a09985087898a09985087898a09985087898a09985087828a09985087898a09985087898a09985087898a09985087898a09985087898a09985087818a09985087898a09985087898a09985087898a09985087868a09985087898a09985087898a09985087898a09985087898a09985087898a09985087898a09985087898a09985087898a09985087878a09985087898a09985087898a09985087898a09985087898a09985087898a09985087898a09985087898a09985087898a09985087898a09985087868a09985087898a09985087898a09985087898a09985087878a09985087898a09985087898a09985087898a09985087898a09985087898a09985087898a09985087898a09985087898a09985087828a09985087898a09985087898a09985087898a09985087898a09985087828a09985087898a09985087898a09985087898a09985087898a09985087898a09985087868a09985087898a09985087898a09985087898a09985087848a09985087898a09985087898a09985087898a09985087898a09985087898a09985087898a09985087898a09985087898a09985087898a09985087898a09985087828a09985087898a09985087898a09985087898a09985087898a09985087868a09985087898a09985087898a09985087898a09985087898a09985087898a09985087838a09985087898a09985087898a09985087898a09985087898a09985087898a09985087898a09985087898a09985087828a09985087898a09985087898a099850878a8a09985087898a09985087898a09985087898a09985087898a09985087898a09985087898a09985087898a09985087848a09985087898a09985087898a09985087898a09985087898a09985087898a09985087898a09985087848a09985087898a09985087898a09985087898a09985087898a09985087898a09985087868a09985087898a09985087898a099850878a8a09985087898a09985087898a09985087898a09985087898a09985087898a09985087898a09985087898a09985087818a09985087898a09985087898a09985087898a09985087898a09985087898a09985087898a09985087858a09985087898a09985087898a09985087898a09985087898a09985087898a099850878a8a09985087898a09985087898a09985087898a09985087898a09985087898a09985087898a099850878a8a09985087898a09985087898a09985087898a09985087898a09985087898a09985087878a09985087898a09985087898a09985087898a09985087898a09985087898a09985087898a09985087898a09985087898a09985087898a09985087828a09985087898a09985087898a09985087898a09985087878a09985087898a09985087898a09985087898a09985087878a09985087898a09985087898a09985087898a09985087898a09985087898a09985087898a09985087898a09985087898a09985087858a09985087898a09985087898a09985087898a09985087898a09985087838a09985087898a09985087898a09985087898a09985087898a09985087858a09985087898a09985087898a09985087898a09985087868a09985087898a09985087898a09985087898a09985087898a09985087898a09985087838a09985087898a0998505050505050505050919050565b60007f30644e72e131a029b85045b68181585d97816a916871ca8d3c208c16d87cfd478083840991508083830981838209828283098385830984848309858484098684850997508684840987858409945087898a09985087898a09985087898a09985087898a09985087898a09985087878a09985087898a09985087898a09985087898a099850878a8a09985087898a09985087898a09985087898a09985087898a099850878a8a09985087898a09985087898a09985087898a09985087898a09985087898a09985087848a09985087898a09985087898a09985087898a09985087898a09985087898a09985087848a09985087898a09985087898a09985087898a099850878a8a09985087898a09985087898a09985087898a09985087898a09985087848a09985087898a09985087898a09985087898a09985087898a09985087898a099850878a8a09985087898a09985087898a09985087898a09985087898a09985087878a09985087898a09985087898a09985087898a09985087898a09985087898a09985087898a09985087898a09985087818a09985087898a09985087898a09985087898a09985087898a09985087898a09985087898a09985087898a09985087898a09985087898a09985087898a09985087868a09985087898a09985087898a09985087898a09985087898a09985087878a09985087898a09985087898a09985087898a09985087898a09985087848a09985087898a09985087898a09985087898a09985087898a09985087898a09985087898a09985087898a09985087868a09985087898a09985087898a09985087898a09985087898a09985087898a09985087898a099850878a8a09985087898a09985087898a09985087898a09985087898a09985087898a09985087898a09985087898a09985087828a09985087898a09985087898a09985087898a09985087898a09985087898a09985087818a09985087898a09985087898a09985087898a09985087868a09985087898a09985087898a09985087898a09985087898a09985087898a09985087898a09985087898a09985087898a09985087878a09985087898a09985087898a09985087898a09985087898a09985087898a09985087898a09985087898a09985087898a09985087898a09985087868a09985087898a09985087898a09985087898a09985087878a09985087898a09985087898a09985087898a09985087898a09985087898a09985087898a09985087898a09985087898a09985087828a09985087898a09985087898a09985087898a09985087898a09985087828a09985087898a09985087898a09985087898a09985087898a09985087898a09985087868a09985087898a09985087898a09985087898a09985087848a09985087898a09985087898a09985087898a09985087898a09985087898a09985087898a09985087898a09985087898a09985087898a09985087898a09985087828a09985087898a09985087898a09985087898a09985087898a09985087868a09985087898a09985087898a09985087898a09985087898a09985087898a09985087838a09985087898a09985087898a09985087898a09985087898a09985087898a09985087898a09985087898a09985087828a09985087898a09985087898a099850878a8a09985087898a09985087898a09985087898a09985087898a09985087898a09985087898a09985087898a09985087848a09985087898a09985087898a09985087898a09985087898a09985087898a09985087898a09985087848a09985087898a09985087898a09985087898a09985087898a09985087898a09985087868a09985087898a09985087898a099850878a8a09985087898a09985087898a09985087898a09985087898a09985087898a09985087898a09985087898a09985087818a09985087898a09985087898a09985087898a09985087898a09985087898a09985087898a09985087858a09985087898a09985087898a09985087898a09985087898a09985087898a099850878a8a09985087898a09985087898a09985087898a09985087898a09985087898a09985087898a099850878a8a09985087898a09985087898a09985087898a09985087898a09985087898a09985087878a09985087898a09985087898a09985087898a09985087898a09985087898a09985087898a09985087898a09985087898a09985087898a09985087828a09985087898a09985087898a09985087898a09985087878a09985087898a09985087898a09985087898a09985087878a09985087898a09985087898a09985087898a09985087898a09985087898a09985087898a09985087898a09985087898a09985087858a09985087898a09985087898a09985087898a09985087898a09985087838a09985087898a09985087898a09985087898a09985087898a09985087858a09985087898a09985087898a09985087898a09985087868a09985087898a09985087898a099850878a8a09985087898a09985087898a09985087898a09985087898a09985087898a09985087898a09985087868a0998505050505050505050919050565b6040518060800160405280600490602082028036833780820191505090505090565b6040518060400160405280600290602082028036833780820191505090505090565b6040518060200160405280600190602082028036833780820191505090505090565b6000604051905090565b600080fd5b6000819050919050565b612309816122f6565b811461231457600080fd5b50565b60008135905061232681612300565b92915050565b600080fd5b6000601f19601f8301169050919050565b7f4e487b7100000000000000000000000000000000000000000000000000000000600052604160045260246000fd5b61237a82612331565b810181811067ffffffffffffffff8211171561239957612398612342565b5b80604052505050565b60006123ac6122e7565b90506123b88282612371565b919050565b600067ffffffffffffffff8211156123d8576123d7612342565b5b602082029050919050565b600080fd5b6000819050919050565b6123fb816123e8565b811461240657600080fd5b50565b600081359050612418816123f2565b92915050565b600061243161242c846123bd565b6123a2565b9050806020840283018581111561244b5761244a6123e3565b5b835b8181101561247457806124608882612409565b84526020840193505060208101905061244d565b5050509392505050565b600082601f8301126124935761249261232c565b5b60046124a084828561241e565b91505092915050565b600067ffffffffffffffff8211156124c4576124c3612342565b5b602082029050919050565b60006124e26124dd846124a9565b6123a2565b905080602084028301858111156124fc576124fb6123e3565b5b835b8181101561252557806125118882612409565b8452602084019350506020810190506124fe565b5050509392505050565b600082601f8301126125445761254361232c565b5b60026125518482856124cf565b91505092915050565b6000806000806101008587031215612575576125746122f1565b5b600061258387828801612317565b94505060206125948782880161247e565b93505060a06125a58782880161252f565b92505060e06125b687828801612317565b91505092959194509250565b60008115159050919050565b6125d7816125c2565b82525050565b60006020820190506125f260008301846125ce565b92915050565b600073ffffffffffffffffffffffffffffffffffffffff82169050919050565b6000819050919050565b600061263d612638612633846125f8565b612618565b6125f8565b9050919050565b600061264f82612622565b9050919050565b600061266182612644565b9050919050565b61267181612656565b82525050565b600060208201905061268c6000830184612668565b92915050565b61269b816122f6565b82525050565b60006020820190506126b66000830184612692565b92915050565b600082825260208201905092915050565b7f496e636f7272656374205075626c69636b6579206f72205369676e617475726560008201527f20506f696e747300000000000000000000000000000000000000000000000000602082015250565b60006127296027836126bc565b9150612734826126cd565b604082019050919050565b600060208201905081810360008301526127588161271c565b9050919050565b7f496e636f727265637420496e707574204d657373616765000000000000000000600082015250565b60006127956017836126bc565b91506127a08261275f565b602082019050919050565b600060208201905081810360008301526127c481612788565b9050919050565b7f4e487b7100000000000000000000000000000000000000000000000000000000600052603260045260246000fd5b7f424c533a20626e206164642063616c6c206661696c6564000000000000000000600082015250565b60006128306017836126bc565b915061283b826127fa565b602082019050919050565b6000602082019050818103600083015261285f81612823565b9050919050565b6000819050919050565b600061288b61288661288184612866565b612618565b6123e8565b9050919050565b61289b81612870565b82525050565b60006020820190506128b66000830184612892565b92915050565b6000815190506128cb816123f2565b92915050565b6000602082840312156128e7576128e66122f1565b5b60006128f5848285016128bc565b91505092915050565b7f6d6170546f506f696e7446543a20696e76616c6964206669656c6420656c656d60008201527f656e740000000000000000000000000000000000000000000000000000000000602082015250565b600061295a6023836126bc565b9150612965826128fe565b604082019050919050565b600060208201905081810360008301526129898161294d565b9050919050565b7f4e487b7100000000000000000000000000000000000000000000000000000000600052601260045260246000fd5b7f4e487b7100000000000000000000000000000000000000000000000000000000600052601160045260246000fd5b60006129f9826123e8565b9150612a04836123e8565b9250828203905081811115612a1c57612a1b6129bf565b5b92915050565b7f424c533a20626164206674206d617070696e6720696d706c656d656e7461746960008201527f6f6e000000000000000000000000000000000000000000000000000000000000602082015250565b6000612a7e6022836126bc565b9150612a8982612a22565b604082019050919050565b60006020820190508181036000830152612aad81612a71565b9050919050565b6000612abf826123e8565b9150612aca836123e8565b9250828201905080821115612ae257612ae16129bf565b5b92915050565b600081519050919050565b600081905092915050565b60005b83811015612b1c578082015181840152602081019050612b01565b60008484015250505050565b6000612b3382612ae8565b612b3d8185612af3565b9350612b4d818560208601612afe565b80840191505092915050565b6000612b658284612b28565b915081905092915050565b600081519050612b7f81612300565b92915050565b600060208284031215612b9b57612b9a6122f1565b5b6000612ba984828501612b70565b9150509291505056fea2646970667358221220ab581cb28de77c1692a60d970dec3f950fe22cc7a788af5781d0643f4120308e64736f6c63430008130033608060405234801561001057600080fd5b50610b5b806100206000396000f3fe608060405234801561001057600080fd5b506004361061004c5760003560e01c80634e79f8ca146100515780639382255714610081578063c04062261461009f578063ebfd94b2146100a9575b600080fd5b61006b600480360381019061006691906105fd565b6100c7565b6040516100789190610639565b60405180910390f35b6100896100ea565b6040516100969190610639565b60405180910390f35b6100a76100f0565b005b6100b16100fa565b6040516100be9190610639565b60405180910390f35b60008054600154836100d99190610683565b6100e391906106c5565b9050919050565b60005481565b6100f8610100565b565b60015481565b600061010a610142565b9050600061011661031d565b9050818161012491906106f9565b6001819055506001548261013891906106f9565b6000819055505050565b6000806040518060c0016040528060018152602001600281526020017f198e9393920d483a7260bfb731fb5d25f1aa493335a9e71297e485b7aef312c281526020017f1800deef121f1e76426a00665e5c4479674322d4f75edadd46debd5cd992f6ed81526020017f090689d0585ff075ec9e99ad690c3395bc4b313370b38ef355acdadcd122975b81526020017f12c85ea5db8c6deb4aab71808dcb408fe3d1e7690c43d37b4ce6cc0166fa7daa81525090506101fe6105a0565b6000806107d05a61020f91906106f9565b90506107d05a11610255576040517f08c379a000000000000000000000000000000000000000000000000000000000815260040161024c906107b0565b60405180910390fd5b60005a905060208460c087600886fa925060005a8261027491906106f9565b9050836102b6576040517f08c379a00000000000000000000000000000000000000000000000000000000081526004016102ad90610842565b60405180910390fd5b6000856000600181106102cc576102cb610862565b5b602002015114610311576040517f08c379a000000000000000000000000000000000000000000000000000000000815260040161030890610929565b60405180910390fd5b80965050505050505090565b60008060405180610180016040528060018152602001600281526020017f198e9393920d483a7260bfb731fb5d25f1aa493335a9e71297e485b7aef312c281526020017f1800deef121f1e76426a00665e5c4479674322d4f75edadd46debd5cd992f6ed81526020017f090689d0585ff075ec9e99ad690c3395bc4b313370b38ef355acdadcd122975b81526020017f12c85ea5db8c6deb4aab71808dcb408fe3d1e7690c43d37b4ce6cc0166fa7daa815260200160018152602001600281526020017f198e9393920d483a7260bfb731fb5d25f1aa493335a9e71297e485b7aef312c281526020017f1800deef121f1e76426a00665e5c4479674322d4f75edadd46debd5cd992f6ed81526020017f275dc4a288d1afb3cbb1ac09187524c7db36395df7be3b99e673b13a075a65ec81526020017f1d9befcd05a5323e6da4d435f3b617cdb3af83285c2df711ef39c01571827f9d81525090506104806105a0565b6000806107d05a61049191906106f9565b90506107d05a116104d7576040517f08c379a00000000000000000000000000000000000000000000000000000000081526004016104ce906109bb565b60405180910390fd5b60005a905060208461018087600886fa925060005a826104f791906106f9565b905083610539576040517f08c379a000000000000000000000000000000000000000000000000000000000815260040161053090610a4d565b60405180910390fd5b60018560006001811061054f5761054e610862565b5b602002015114610594576040517f08c379a000000000000000000000000000000000000000000000000000000000815260040161058b90610b05565b60405180910390fd5b80965050505050505090565b6040518060200160405280600190602082028036833780820191505090505090565b600080fd5b6000819050919050565b6105da816105c7565b81146105e557600080fd5b50565b6000813590506105f7816105d1565b92915050565b600060208284031215610613576106126105c2565b5b6000610621848285016105e8565b91505092915050565b610633816105c7565b82525050565b600060208201905061064e600083018461062a565b92915050565b7f4e487b7100000000000000000000000000000000000000000000000000000000600052601160045260246000fd5b600061068e826105c7565b9150610699836105c7565b92508282026106a7816105c7565b915082820484148315176106be576106bd610654565b5b5092915050565b60006106d0826105c7565b91506106db836105c7565b92508282019050808211156106f3576106f2610654565b5b92915050565b6000610704826105c7565b915061070f836105c7565b925082820390508181111561072757610726610654565b5b92915050565b600082825260208201905092915050565b7f424e50616972696e67507265636f6d70696c65436f7374457374696d61746f7260008201527f3a206e6f7420656e6f756768206761732c2073696e676c652070616972000000602082015250565b600061079a603d8361072d565b91506107a58261073e565b604082019050919050565b600060208201905081810360008301526107c98161078d565b9050919050565b7f424e50616972696e67507265636f6d70696c65436f7374457374696d61746f7260008201527f3a2073696e676c6520706169722063616c6c206973206661696c656400000000602082015250565b600061082c603c8361072d565b9150610837826107d0565b604082019050919050565b6000602082019050818103600083015261085b8161081f565b9050919050565b7f4e487b7100000000000000000000000000000000000000000000000000000000600052603260045260246000fd5b7f424e50616972696e67507265636f6d70696c65436f7374457374696d61746f7260008201527f3a2073696e676c6520706169722063616c6c20726573756c74206d757374206260208201527f6520300000000000000000000000000000000000000000000000000000000000604082015250565b600061091360438361072d565b915061091e82610891565b606082019050919050565b6000602082019050818103600083015261094281610906565b9050919050565b7f424e50616972696e67507265636f6d70696c65436f7374457374696d61746f7260008201527f3a206e6f7420656e6f756768206761732c20636f75706c652070616972000000602082015250565b60006109a5603d8361072d565b91506109b082610949565b604082019050919050565b600060208201905081810360008301526109d481610998565b9050919050565b7f424e50616972696e67507265636f6d70696c65436f7374457374696d61746f7260008201527f3a20636f75706c6520706169722063616c6c206973206661696c656400000000602082015250565b6000610a37603c8361072d565b9150610a42826109db565b604082019050919050565b60006020820190508181036000830152610a6681610a2a565b9050919050565b7f424e50616972696e67507265636f6d70696c65436f7374457374696d61746f7260008201527f3a20636f75706c6520706169722063616c6c20726573756c74206d757374206260208201527f6520310000000000000000000000000000000000000000000000000000000000604082015250565b6000610aef60438361072d565b9150610afa82610a6d565b606082019050919050565b60006020820190508181036000830152610b1e81610ae2565b905091905056fea2646970667358221220f13ec174ba475b200207a369f5265d8490fb4b1c14d4be332ea0774483dfdb6b64736f6c63430008130033",
  "immutableReferences": {},
  "source": "// SPDX-License-Identifier: MIT\npragma solidity ^0.8.7;\n\nimport \"./BLS.sol\";\n\ncontract Verify {\n    BNPairingPrecompileCostEstimator public estimator;\n\n    constructor() {\n        estimator = new BNPairingPrecompileCostEstimator();\n        estimator.run();\n    }\n\n    function verify(bytes32 domain, uint256[4] memory publicKey, uint256[2] memory signature, bytes32 message) public view returns (bool) {\n        bool callSuccess;\n        bool checkSuccess;\n        (checkSuccess, callSuccess) = BLS.verifySingle(signature, publicKey, BLS.hashToPoint(domain, abi.encode(message)), address(estimator));\n        require(callSuccess, \"Incorrect Publickey or Signature Points\");\n        require(checkSuccess, \"Incorrect Input Message\");\n        return true;\n    }\n\n    function verifyDefaultMessage() public view returns (bool) {\n        bytes32 domain;\n        uint256[4] memory publicKey;\n        uint256[2] memory signature;\n        bytes32 message = 0x321580d53f250a51ed527f5f7856bdd2ecbbf19f722ee6acc1804f63462375f3;\n        domain = 0x0000000000000000000000000000000000000000000000000000000000000020;\n\n        publicKey[0] =  1877680754511875309899085821046020641041516699522550968201931210511122361188;\n        publicKey[1] =  1879687745237862349771417085220368195630510774060410176566704734657946401647;\n        publicKey[2] =  10177664824327229270631241062558466194853353905576267792570130720130119743401;\n        publicKey[3] =  2617838070911723228053200997531205923494421078683439118196637157934995837361;\n\n        signature[0] = 3789870118542016974105699138161781008918636358438246688710078193373583696417;\n        signature[1] = 20766815278548398344257910495536643911108480586016736348038320126600861929561;\n\n        return verify(domain, publicKey, signature, message);\n    }\n}\n\n\n",
  "sourcePath": "/Users/pathorn/Work/hedera/bn254_sign_verify/contracts/Verify.sol",
  "compiler": {
    "name": "solc",
    "version": "0.8.19+commit.7dd6d404.Emscripten.clang"
  },
  "schemaVersion": "3.4.13",
  "updatedAt": "2023-09-08T10:59:18.611Z",
  "devdoc": {
    "kind": "dev",
    "methods": {},
    "version": 1
  },
  "userdoc": {
    "kind": "user",
    "methods": {},
    "version": 1
  }
}